:020000040800F2
:100000002004002049010008D10500086905000806
:10001000CD050008BD010008410D000800000000EA
:10002000000000000000000000000000A107000820
:10003000410300080000000089060008E1080008EC
:100040006301000863010008630100086301000800
:1000500063010008630100086301000863010008F0
:1000600063010008630100086301000863010008E0
:1000700063010008630100086301000863010008D0
:1000800063010008630100086301000863010008C0
:1000900063010008630100086301000863010008B0
:1000A00063010008630100086301000863010008A0
:1000B00045090008630100086301000863010008A6
:1000C0006301000863010008630100086301000880
:1000D000630100086301000863010008E50A0008E5
:1000E0006301000863010008630100086301000860
:1000F0006301000863010008630100086301000850
:10010000630100086301000863010008630100083F
:10011000630100086301000863010008630100082F
:10012000630100086301000863010008630100081F
:10013000DFF810D000F030F800480047330F000817
:10014000AFF300802004002006488047064800479F
:10015000FEE7FEE7FEE7FEE7FEE7FEE7FEE7FEE777
:10016000FEE7FEE7E50800083101000830B50B4660
:10017000014600202022012409E021FA02F59D42D7
:1001800005D303FA02F5491B04FA02F52844151EAB
:10019000A2F10102F1DC30BD064C074D06E0E0683B
:1001A00040F0010394E8070098471034AC42F6D3BE
:1001B000FFF7C2FF480F0008680F000800BFFEE706
:1001C00008B50121402000F071FA4020ADF8000090
:1001D00010208DF8030003208DF8020069460248C4
:1001E00000F02AF908BD00000018014010B5FFF723
:1001F000E7FF4021014800F0B5F910BD00180140AB
:1002000008B54020ADF8000048208DF8030069468D
:10021000014800F011F908BD0018014008B5402060
:10022000ADF8000010208DF8030003208DF80200C7
:100230006946024800F000F908BD000000180140BE
:1002400070B50025002424E000BF4021134800F0D1
:100250007EF90028F9D0282000F092F840210F48BC
:1002600000F075F901280DD100BF40210B4800F0C6
:100270006EF90128F9D0C4F1070101208840C0B20D
:10028000054304E0C4F10701012088408543601C58
:10029000C4B2082CD8DB284670BD0000001801400D
:1002A00010B50446FFF7BAFF4021244800F058F982
:1002B000122000F047F84021204800F053F91E209A
:1002C00000F05EF8FFF79CFF40211C4800F03FF96A
:1002D00080BB00BF4021194800F039F90028F9D04F
:1002E00000BF4021154800F032F90128F9D0FFF78E
:1002F000A7FF2070FFF7A4FF6070FFF7A1FFA070B9
:10030000FFF79EFFE070FFF79BFF2071FFF786FF6E
:1003100040210A4800F026F9207861780844A17845
:100320000844E17808442179884201D1012010BDB8
:100330000020FCE7FFE70020F9E70000001801407B
:100340007047000010B504460C4800F09FFA07E023
:1003500000BF4FF0E020006900F480300028F8D0A2
:10036000201EA4F10104F3D14FF0E020006920F039
:1003700001004FF0E021086110BD000040190100AC
:1003800010B50446482000F081FA07E000BF4FF0A6
:10039000E020006900F480300028F8D0201EA4F18D
:1003A0000104F3D14FF0E020006920F001004FF08C
:1003B000E021086110BD10B500F029F800F001F847
:1003C00010BD0EB50121084600F060F940F2E7309B
:1003D000ADF804004720ADF800000020ADF806009D
:1003E000ADF802008DF8080069464FF0804000F03B
:1003F00027FB0121880700F0F7FA01221146900738
:1004000000F015FB0121880700F0F4FA0EBD08B5D5
:100410004FF4E06000F02EF91C208DF80000002061
:100420008DF8010003208DF8020001208DF80300F3
:10043000684600F0E7F808BD2DE9F04102460025C6
:100440000026002000230024002791F803C00CF0B0
:100450000F0591F803C00CF0100CBCF1000F03D095
:1004600091F802C04CEA050591F800C0BCF1000FFC
:1004700031D0146800202BE04FF0010C0CFA00F38F
:10048000B1F800C00CEA03069E4220D183004FF071
:100490000F0C0CFA03F7BC4305FA03FC4CEA040406
:1004A00091F803C0BCF1280F06D14FF0010C0CFAF3
:1004B00000FCC2F814C00AE091F803C0BCF1480F78
:1004C00005D14FF0010C0CFA00FCC2F810C0401C22
:1004D0000828D1D31460B1F800C0BCF1FF0F34DD9F
:1004E000546800202EE000F1080C4FF0010808FAD3
:1004F0000CF3B1F800C00CEA03069E4221D1830040
:100500004FF00F0C0CFA03F7BC4305FA03FC4CEA5E
:10051000040491F803C0BCF1280F05D100F1080CC8
:1005200008FA0CF8C2F8148091F803C0BCF1480F27
:1005300007D100F1080C4FF0010808FA0CF8C2F8D6
:100540001080401C0828CED35460BDE8F0810246DC
:10055000002093680B400BB1012000E000207047A1
:10056000416170470161704700BFFEE708B5012196
:10057000082000F09BF82020ADF8000010208DF836
:10058000030003208DF8020069460F48FFF754FF6F
:100590000120ADF8000069460B48FFF74DFF02202F
:1005A000ADF8000069460848FFF746FF20210648DD
:1005B000FFF7D8FF01210448FFF7D4FF02210248CA
:1005C000FFF7D0FF08BD0000000C014000BFFEE7B0
:1005D000704708B54FF4A06000F04CF825208DF866
:1005E000000001208DF801008DF802008DF8030055
:1005F000684600F007F827208DF80000684600F0F4
:1006000001F808BD70B5002100230F22C47804B39F
:10061000154C246804F4E064C4F5E064210AC1F1D7
:100620000403CA40447804FA03F184781440214357
:1006300009010E4C0678A155047804F01F05012429
:10064000AC4005786D11AD0005F1E025C5F800411D
:1006500009E0047804F01F050124AC40044D06783D
:10066000761145F8264070BD0CED00E000E400E096
:1006700080E100E002490143024A11607047000036
:100680000000FA050CED00E07047000029B1064AB1
:10069000D2690243044BDA6104E0034AD26982431F
:1006A000014BDA61704700000010024029B1064A90
:1006B00092690243044B9A6104E0034A92698243BF
:1006C000014B9A61704700000010024030B50021D4
:1006D0000022002400232D4D6D6805F00C0121B18E
:1006E000042905D0082923D105E0294D056022E021
:1006F000274D05601FE0254D6D6805F47012234DF0
:100700006D6805F48034022505EB92421CB9214D39
:10071000554305600BE01D4D6D6805F400351DB1B6
:100720001C4D5543056002E0194D5543056002E03C
:10073000174D056000BF00BF144D6D6805F0F00156
:100740000909154D6B5C0568DD4045600F4D6D680E
:1007500005F4E061090A104D6B5C4568DD40856079
:100760000A4D6D6805F46051C90A0B4D6B5C456814
:10077000DD40C560054D6D6805F44041890B074DAE
:100780006B5CC568B5FBF3F5056130BD0010024038
:1007900000127A0000093D00000000201000002037
:1007A000704710B500F002F810BD00000CB5002035
:1007B000019000903348006840F48030314908606F
:1007C00000BF3048006800F4003000900198401CE1
:1007D0000190009818B90198B0F5A06FF1D129489F
:1007E000006800F4003010B10120009001E000200A
:1007F00000900098012843D12348006840F0100081
:10080000214908600846006820F003000860084697
:10081000006840F0020008601A48406819494860C2
:100820000846406848600846406840F48060486078
:100830000846406820F47C1048600846406840F450
:10084000E81048600846006840F08070086000BF0B
:100850000C48006800F000700028F9D00948406892
:1008600020F00300074948600846406840F0020055
:10087000486000BF0348406800F00C000828F9D128
:100880000CBD0000001002400020024030B50146BF
:10089000B1F1807F01D3012030BD21F07F40401EA7
:1008A0004FF0E022506150170F22002807DA13079B
:1008B0001D0E094B00F00F04241F1D5503E0130704
:1008C0001C0E064B1C5400BF00204FF0E02290612C
:1008D000072010610020DFE718ED00E000E400E0F1
:1008E0007047000010B51348006840F0010011493E
:1008F000086008464068104908400E4948600846AC
:1009000000680E4908400B4908600846006820F45A
:10091000802008600846406820F4FE0048604FF4DC
:100920001F008860FFF73DFF4FF00060044908603A
:1009300010BD0000001002400000FFF8FFFFF6FEAF
:1009400008ED00E000B59BB00121880700F05EF8DB
:1009500040B114480088401C1249088001218807D2
:1009600000F045F80F480088B0F57A7F17D10020D5
:100970000C4908800C48FFF793FC0B48C0780A49E3
:100980008978CDE9001008484378027807A102A8C9
:1009900000F0FCF902A9134800F0E3F900BF1BB016
:1009A00000BD00001400002016000020CAAAB6C82E
:1009B000D5FBCAFD3A20256420CAAAB6C8D0A1CA70
:1009C000FD3A20256420CEC2B6C8D5FBCAFD3A2028
:1009D000256420CEC2B6C8D0A1CAFD3A2025640A3B
:1009E0000000000000380140CA4302827047CA4339
:1009F0000282704721B1028842F00102028004E0C5
:100A000002884FF6FE731A400280704730B50246E6
:100A1000002000230024158A05EA0103958905EAD0
:100A2000010413B10CB1012000E0002030BD1AB167
:100A300083890B43838102E083898B4383817047E1
:100A4000002202881D4B98420ED01D4B98420BD0BD
:100A5000B0F1804F08D01B4B984205D01A4B9842FA
:100A600002D01A4B984204D14FF68F731A404B882C
:100A70001A43174B984207D0164B984204D04FF6B2
:100A8000FF431A40CB881A4302808B8883850B88EA
:100A900003850A4B98420BD0094B984208D00E4B65
:100AA000984205D00D4B984202D00D4B984201D18F
:100AB0000B7A03860123838270470000002C0140DB
:100AC000003401400004004000080040000C0040D9
:100AD000001000400014004000400140004401406C
:100AE00000480140704721B1828942F4005282815E
:100AF00004E082894DF6FF731A408281704700003E
:100B000000B585B001210420FFF7D0FD0121880345
:100B1000FFF7CCFD01210820FFF7C8FD0121880463
:100B2000FFF7B4FD4FF40070ADF8100018208DF8F9
:100B3000130003208DF8120004A92C48FFF77CFC59
:100B40004FF48060ADF8100004208DF8130004A964
:100B50002648FFF771FC4FF48060ADF810001820B4
:100B60008DF8130003208DF8120004A92048FFF728
:100B700063FC4FF40060ADF8100004208DF8130002
:100B800004A91B48FFF758FC4FF4E1300090002007
:100B9000ADF80400ADF80600ADF80800ADF80C00A3
:100BA0000C20ADF80A006946124800F059F84FF4DD
:100BB000E13000906946104800F052F8FFF709FD57
:100BC000012240F225510B4800F025F80121094887
:100BD000FFF789FF012240F22551074800F01BF87A
:100BE00001210548FFF77FFF05B000BD0008014067
:100BF000000C01400038014000480040024600203F
:100C0000B1F5007F00D100BF13880B400BB101206C
:100C100000E000207047F0B50346002400260025C0
:100C2000002040F66A17B94200D100BF1846C1F350
:100C3000421401F01F06012707FA06F5012C01D125
:100C40000C3004E0022C01D1103000E014301AB155
:100C500007682F43076002E00768AF430760F0BDF5
:100C60002DE9F04786B005460E460024A24600BF97
:100C7000A1460027B08900B100BF2F462C8A4CF650
:100C8000FF700440F08804432C82AC894EF6F310C8
:100C90000440B08831890843718908430443AC811A
:100CA000AC8A4FF6FF400440B0890443AC8201A8EF
:100CB000FFF70CFD1F48874202D1DDF810A001E0CC
:100CC000DDF80CA0A88900F4004040B10AEBCA008E
:100CD00000EB0A1031684900B0FBF1F807E00AEBBD
:100CE000CA0000EB0A1031688900B0FBF1F86420FB
:100CF000B8FBF0F004012009642101FB1089A889E8
:100D000000F4004040B1322000EBC900B0FBF1F02C
:100D100000F00700044308E0322000EB09106421D2
:100D2000B0FBF1F000F00F0004432C8106B0BDE8E9
:100D3000F087000000380140C1F30802828070474C
:100D400000BFFEE770B504460D4629462046FFF772
:100D5000F3FF00BF80212046FFF750FF0028F9D0A5
:100D600070BD70B506460C46002500BF615D30467B
:100D7000FFF7E8FF6D1C605D0028F7D100BF402140
:100D80003046FFF73BFF0028F9D070BD0FB4084B89
:100D900010B504A902AA039800F01CF8044602A9A1
:100DA000002000F0C1F8204610BC5DF814FB0000E4
:100DB000290F000802E008C8121F08C1002AFAD152
:100DC00070477047002001E001C1121F002AFBD1CB
:100DD000704700002DE9FF4F89B09B46044600256F
:100DE00006E025280BD05A460B999047641C6D1CD1
:100DF00020780028F5D10DB02846BDE8F08F0027F7
:100E0000B8460122474900E0074314F8013F203B60
:100E100002FA03F00842F7D120782E2819D114F8ED
:100E2000010F47F004072A280ED06FF02F02207818
:100E3000A0F1300109290CD808EB880102EB41012F
:100E400000EB0108641CF2E70A98641C50F8048B5C
:100E50000A9020780028CED0642808D0692806D0CF
:100E600075281ED05A460B9990476D1C58E00A9978
:100E70004FF00A0901C90A91002802DA40422D21E7
:100E800002E0390504D52B218DF82010012103E063
:100E9000F90704D02021F7E78A4608AE0DE00021CB
:100EA000FAE70A994FF00A0901C90A91F7E749469A
:100EB000FFF75CF9303106F8011D0028F7D1ADEBE2
:100EC000060000F12009780701D44FF00108C84559
:100ED00002DDA8EB090000E000208046002706E0C4
:100EE00008A85A46C05D0B9990476D1C7F1C57455A
:100EF000F6DB04E030205A460B9990476D1CB8F1A0
:100F00000001A8F10108F5DC05E016F8010B5A46CE
:100F10000B9990476D1CB9F10001A9F10109F4DCAE
:100F2000641C65E7092801000A68531C0B601070F7
:100F30007047FFF71BFBFFF7E3FDFFF757F9FFF7DC
:100F40003AFA00BFFEE70000680F0008000000202A
:100F50001C000000B40D0008840F00081C000020D5
:100F600004040000C40D0008000000000102030496
:100F70000102030406070809020406080000000035
:040F8000000000006D
:0400000508000131BD
:00000001FF
